{
  "_format": "hh-sol-artifact-1",
  "contractName": "DAOToken",
  "sourceName": "contracts/DAOToken.sol",
  "abi": [
    {
      "inputs": [
        {
          "internalType": "uint256",
          "name": "_totalSupply",
          "type": "uint256"
        }
      ],
      "stateMutability": "nonpayable",
      "type": "constructor"
    },
    {
      "anonymous": false,
      "inputs": [
        {
          "indexed": true,
          "internalType": "address",
          "name": "owner",
          "type": "address"
        },
        {
          "indexed": true,
          "internalType": "address",
          "name": "spender",
          "type": "address"
        },
        {
          "indexed": false,
          "internalType": "uint256",
          "name": "value",
          "type": "uint256"
        }
      ],
      "name": "Approval",
      "type": "event"
    },
    {
      "anonymous": false,
      "inputs": [
        {
          "indexed": true,
          "internalType": "address",
          "name": "from",
          "type": "address"
        },
        {
          "indexed": true,
          "internalType": "address",
          "name": "to",
          "type": "address"
        },
        {
          "indexed": false,
          "internalType": "uint256",
          "name": "value",
          "type": "uint256"
        }
      ],
      "name": "Transfer",
      "type": "event"
    },
    {
      "inputs": [
        {
          "internalType": "address",
          "name": "_member",
          "type": "address"
        }
      ],
      "name": "addOwners",
      "outputs": [],
      "stateMutability": "nonpayable",
      "type": "function"
    },
    {
      "inputs": [
        {
          "internalType": "address",
          "name": "owner",
          "type": "address"
        },
        {
          "internalType": "address",
          "name": "spender",
          "type": "address"
        }
      ],
      "name": "allowance",
      "outputs": [
        {
          "internalType": "uint256",
          "name": "",
          "type": "uint256"
        }
      ],
      "stateMutability": "view",
      "type": "function"
    },
    {
      "inputs": [
        {
          "internalType": "address",
          "name": "spender",
          "type": "address"
        },
        {
          "internalType": "uint256",
          "name": "amount",
          "type": "uint256"
        }
      ],
      "name": "approve",
      "outputs": [
        {
          "internalType": "bool",
          "name": "",
          "type": "bool"
        }
      ],
      "stateMutability": "nonpayable",
      "type": "function"
    },
    {
      "inputs": [],
      "name": "arrayLength",
      "outputs": [
        {
          "internalType": "uint256",
          "name": "",
          "type": "uint256"
        }
      ],
      "stateMutability": "view",
      "type": "function"
    },
    {
      "inputs": [
        {
          "internalType": "address",
          "name": "account",
          "type": "address"
        }
      ],
      "name": "balanceOf",
      "outputs": [
        {
          "internalType": "uint256",
          "name": "",
          "type": "uint256"
        }
      ],
      "stateMutability": "view",
      "type": "function"
    },
    {
      "inputs": [],
      "name": "decimals",
      "outputs": [
        {
          "internalType": "uint8",
          "name": "",
          "type": "uint8"
        }
      ],
      "stateMutability": "view",
      "type": "function"
    },
    {
      "inputs": [
        {
          "internalType": "address",
          "name": "spender",
          "type": "address"
        },
        {
          "internalType": "uint256",
          "name": "subtractedValue",
          "type": "uint256"
        }
      ],
      "name": "decreaseAllowance",
      "outputs": [
        {
          "internalType": "bool",
          "name": "",
          "type": "bool"
        }
      ],
      "stateMutability": "nonpayable",
      "type": "function"
    },
    {
      "inputs": [
        {
          "internalType": "address",
          "name": "spender",
          "type": "address"
        },
        {
          "internalType": "uint256",
          "name": "addedValue",
          "type": "uint256"
        }
      ],
      "name": "increaseAllowance",
      "outputs": [
        {
          "internalType": "bool",
          "name": "",
          "type": "bool"
        }
      ],
      "stateMutability": "nonpayable",
      "type": "function"
    },
    {
      "inputs": [],
      "name": "name",
      "outputs": [
        {
          "internalType": "string",
          "name": "",
          "type": "string"
        }
      ],
      "stateMutability": "view",
      "type": "function"
    },
    {
      "inputs": [],
      "name": "owner",
      "outputs": [
        {
          "internalType": "address",
          "name": "",
          "type": "address"
        }
      ],
      "stateMutability": "view",
      "type": "function"
    },
    {
      "inputs": [
        {
          "internalType": "uint256",
          "name": "",
          "type": "uint256"
        }
      ],
      "name": "owners",
      "outputs": [
        {
          "internalType": "address",
          "name": "",
          "type": "address"
        }
      ],
      "stateMutability": "view",
      "type": "function"
    },
    {
      "inputs": [],
      "name": "requiredOwners",
      "outputs": [
        {
          "internalType": "uint256",
          "name": "",
          "type": "uint256"
        }
      ],
      "stateMutability": "view",
      "type": "function"
    },
    {
      "inputs": [],
      "name": "symbol",
      "outputs": [
        {
          "internalType": "string",
          "name": "",
          "type": "string"
        }
      ],
      "stateMutability": "view",
      "type": "function"
    },
    {
      "inputs": [],
      "name": "totalSupply",
      "outputs": [
        {
          "internalType": "uint256",
          "name": "",
          "type": "uint256"
        }
      ],
      "stateMutability": "view",
      "type": "function"
    },
    {
      "inputs": [
        {
          "internalType": "address",
          "name": "recipient",
          "type": "address"
        },
        {
          "internalType": "uint256",
          "name": "amount",
          "type": "uint256"
        }
      ],
      "name": "transfer",
      "outputs": [
        {
          "internalType": "bool",
          "name": "",
          "type": "bool"
        }
      ],
      "stateMutability": "nonpayable",
      "type": "function"
    },
    {
      "inputs": [
        {
          "internalType": "address",
          "name": "sender",
          "type": "address"
        },
        {
          "internalType": "address",
          "name": "recipient",
          "type": "address"
        },
        {
          "internalType": "uint256",
          "name": "amount",
          "type": "uint256"
        }
      ],
      "name": "transferFrom",
      "outputs": [
        {
          "internalType": "bool",
          "name": "",
          "type": "bool"
        }
      ],
      "stateMutability": "nonpayable",
      "type": "function"
    }
  ],
  "bytecode": "0x60806040523480156200001157600080fd5b5060405162001ba338038062001ba38339818101604052810190620000379190620003de565b6040518060400160405280600981526020017f44414f20546f6b656e00000000000000000000000000000000000000000000008152506040518060400160405280600481526020017f44544b4e000000000000000000000000000000000000000000000000000000008152508160039080519060200190620000bb92919062000317565b508060049080519060200190620000d492919062000317565b505050620000e933826200019460201b60201c565b33600560006101000a81548173ffffffffffffffffffffffffffffffffffffffff021916908373ffffffffffffffffffffffffffffffffffffffff1602179055506007339080600181540180825580915050600190039060005260206000200160009091909190916101000a81548173ffffffffffffffffffffffffffffffffffffffff021916908373ffffffffffffffffffffffffffffffffffffffff16021790555050620005d0565b600073ffffffffffffffffffffffffffffffffffffffff168273ffffffffffffffffffffffffffffffffffffffff16141562000207576040517f08c379a0000000000000000000000000000000000000000000000000000000008152600401620001fe9062000442565b60405180910390fd5b6200021b600083836200030d60201b60201c565b80600260008282546200022f919062000492565b92505081905550806000808473ffffffffffffffffffffffffffffffffffffffff1673ffffffffffffffffffffffffffffffffffffffff168152602001908152602001600020600082825462000286919062000492565b925050819055508173ffffffffffffffffffffffffffffffffffffffff16600073ffffffffffffffffffffffffffffffffffffffff167fddf252ad1be2c89b69c2b068fc378daa952ba7f163c4a11628f55a4df523b3ef83604051620002ed919062000464565b60405180910390a362000309600083836200031260201b60201c565b5050565b505050565b505050565b8280546200032590620004f9565b90600052602060002090601f01602090048101928262000349576000855562000395565b82601f106200036457805160ff191683800117855562000395565b8280016001018555821562000395579182015b828111156200039457825182559160200191906001019062000377565b5b509050620003a49190620003a8565b5090565b5b80821115620003c3576000816000905550600101620003a9565b5090565b600081519050620003d881620005b6565b92915050565b600060208284031215620003f157600080fd5b60006200040184828501620003c7565b91505092915050565b600062000419601f8362000481565b915062000426826200058d565b602082019050919050565b6200043c81620004ef565b82525050565b600060208201905081810360008301526200045d816200040a565b9050919050565b60006020820190506200047b600083018462000431565b92915050565b600082825260208201905092915050565b60006200049f82620004ef565b9150620004ac83620004ef565b9250827fffffffffffffffffffffffffffffffffffffffffffffffffffffffffffffffff03821115620004e457620004e36200052f565b5b828201905092915050565b6000819050919050565b600060028204905060018216806200051257607f821691505b602082108114156200052957620005286200055e565b5b50919050565b7f4e487b7100000000000000000000000000000000000000000000000000000000600052601160045260246000fd5b7f4e487b7100000000000000000000000000000000000000000000000000000000600052602260045260246000fd5b7f45524332303a206d696e7420746f20746865207a65726f206164647265737300600082015250565b620005c181620004ef565b8114620005cd57600080fd5b50565b6115c380620005e06000396000f3fe608060405234801561001057600080fd5b50600436106101005760003560e01c806370a0823111610097578063a9059cbb11610066578063a9059cbb146102d7578063c98d183614610307578063dd62ed3e14610325578063e554482e1461035557610100565b806370a082311461023b5780638da5cb5b1461026b57806395d89b4114610289578063a457c2d7146102a757610100565b806323b872dd116100d357806323b872dd146101a1578063313ce567146101d157806339509351146101ef5780635f3b1f3b1461021f57610100565b8063025e7c271461010557806306fdde0314610135578063095ea7b31461015357806318160ddd14610183575b600080fd5b61011f600480360381019061011a9190610e9a565b610373565b60405161012c919061102d565b60405180910390f35b61013d6103b2565b60405161014a9190611063565b60405180910390f35b61016d60048036038101906101689190610e5e565b610444565b60405161017a9190611048565b60405180910390f35b61018b610462565b6040516101989190611165565b60405180910390f35b6101bb60048036038101906101b69190610e0f565b61046c565b6040516101c89190611048565b60405180910390f35b6101d9610564565b6040516101e69190611180565b60405180910390f35b61020960048036038101906102049190610e5e565b61056d565b6040516102169190611048565b60405180910390f35b61023960048036038101906102349190610daa565b610619565b005b61025560048036038101906102509190610daa565b61067f565b6040516102629190611165565b60405180910390f35b6102736106c7565b604051610280919061102d565b60405180910390f35b6102916106ed565b60405161029e9190611063565b60405180910390f35b6102c160048036038101906102bc9190610e5e565b61077f565b6040516102ce9190611048565b60405180910390f35b6102f160048036038101906102ec9190610e5e565b61086a565b6040516102fe9190611048565b60405180910390f35b61030f610888565b60405161031c9190611165565b60405180910390f35b61033f600480360381019061033a9190610dd3565b61088e565b60405161034c9190611165565b60405180910390f35b61035d610915565b60405161036a9190611165565b60405180910390f35b6007818154811061038357600080fd5b906000526020600020016000915054906101000a900473ffffffffffffffffffffffffffffffffffffffff1681565b6060600380546103c190611295565b80601f01602080910402602001604051908101604052809291908181526020018280546103ed90611295565b801561043a5780601f1061040f5761010080835404028352916020019161043a565b820191906000526020600020905b81548152906001019060200180831161041d57829003601f168201915b5050505050905090565b6000610458610451610922565b848461092a565b6001905092915050565b6000600254905090565b6000610479848484610af5565b6000600160008673ffffffffffffffffffffffffffffffffffffffff1673ffffffffffffffffffffffffffffffffffffffff16815260200190815260200160002060006104c4610922565b73ffffffffffffffffffffffffffffffffffffffff1673ffffffffffffffffffffffffffffffffffffffff16815260200190815260200160002054905082811015610544576040517f08c379a000000000000000000000000000000000000000000000000000000000815260040161053b906110e5565b60405180910390fd5b61055885610550610922565b85840361092a565b60019150509392505050565b60006012905090565b600061060f61057a610922565b848460016000610588610922565b73ffffffffffffffffffffffffffffffffffffffff1673ffffffffffffffffffffffffffffffffffffffff16815260200190815260200160002060008873ffffffffffffffffffffffffffffffffffffffff1673ffffffffffffffffffffffffffffffffffffffff1681526020019081526020016000205461060a91906111b7565b61092a565b6001905092915050565b6007819080600181540180825580915050600190039060005260206000200160009091909190916101000a81548173ffffffffffffffffffffffffffffffffffffffff021916908373ffffffffffffffffffffffffffffffffffffffff16021790555050565b60008060008373ffffffffffffffffffffffffffffffffffffffff1673ffffffffffffffffffffffffffffffffffffffff168152602001908152602001600020549050919050565b600560009054906101000a900473ffffffffffffffffffffffffffffffffffffffff1681565b6060600480546106fc90611295565b80601f016020809104026020016040519081016040528092919081815260200182805461072890611295565b80156107755780601f1061074a57610100808354040283529160200191610775565b820191906000526020600020905b81548152906001019060200180831161075857829003601f168201915b5050505050905090565b6000806001600061078e610922565b73ffffffffffffffffffffffffffffffffffffffff1673ffffffffffffffffffffffffffffffffffffffff16815260200190815260200160002060008573ffffffffffffffffffffffffffffffffffffffff1673ffffffffffffffffffffffffffffffffffffffff1681526020019081526020016000205490508281101561084b576040517f08c379a000000000000000000000000000000000000000000000000000000000815260040161084290611145565b60405180910390fd5b61085f610856610922565b8585840361092a565b600191505092915050565b600061087e610877610922565b8484610af5565b6001905092915050565b60065481565b6000600160008473ffffffffffffffffffffffffffffffffffffffff1673ffffffffffffffffffffffffffffffffffffffff16815260200190815260200160002060008373ffffffffffffffffffffffffffffffffffffffff1673ffffffffffffffffffffffffffffffffffffffff16815260200190815260200160002054905092915050565b6000600780549050905090565b600033905090565b600073ffffffffffffffffffffffffffffffffffffffff168373ffffffffffffffffffffffffffffffffffffffff16141561099a576040517f08c379a000000000000000000000000000000000000000000000000000000000815260040161099190611125565b60405180910390fd5b600073ffffffffffffffffffffffffffffffffffffffff168273ffffffffffffffffffffffffffffffffffffffff161415610a0a576040517f08c379a0000000000000000000000000000000000000000000000000000000008152600401610a01906110a5565b60405180910390fd5b80600160008573ffffffffffffffffffffffffffffffffffffffff1673ffffffffffffffffffffffffffffffffffffffff16815260200190815260200160002060008473ffffffffffffffffffffffffffffffffffffffff1673ffffffffffffffffffffffffffffffffffffffff168152602001908152602001600020819055508173ffffffffffffffffffffffffffffffffffffffff168373ffffffffffffffffffffffffffffffffffffffff167f8c5be1e5ebec7d5bd14f71427d1e84f3dd0314c0f7b2291e5b200ac8c7c3b92583604051610ae89190611165565b60405180910390a3505050565b600073ffffffffffffffffffffffffffffffffffffffff168373ffffffffffffffffffffffffffffffffffffffff161415610b65576040517f08c379a0000000000000000000000000000000000000000000000000000000008152600401610b5c90611105565b60405180910390fd5b600073ffffffffffffffffffffffffffffffffffffffff168273ffffffffffffffffffffffffffffffffffffffff161415610bd5576040517f08c379a0000000000000000000000000000000000000000000000000000000008152600401610bcc90611085565b60405180910390fd5b610be0838383610d76565b60008060008573ffffffffffffffffffffffffffffffffffffffff1673ffffffffffffffffffffffffffffffffffffffff16815260200190815260200160002054905081811015610c66576040517f08c379a0000000000000000000000000000000000000000000000000000000008152600401610c5d906110c5565b60405180910390fd5b8181036000808673ffffffffffffffffffffffffffffffffffffffff1673ffffffffffffffffffffffffffffffffffffffff16815260200190815260200160002081905550816000808573ffffffffffffffffffffffffffffffffffffffff1673ffffffffffffffffffffffffffffffffffffffff1681526020019081526020016000206000828254610cf991906111b7565b925050819055508273ffffffffffffffffffffffffffffffffffffffff168473ffffffffffffffffffffffffffffffffffffffff167fddf252ad1be2c89b69c2b068fc378daa952ba7f163c4a11628f55a4df523b3ef84604051610d5d9190611165565b60405180910390a3610d70848484610d7b565b50505050565b505050565b505050565b600081359050610d8f8161155f565b92915050565b600081359050610da481611576565b92915050565b600060208284031215610dbc57600080fd5b6000610dca84828501610d80565b91505092915050565b60008060408385031215610de657600080fd5b6000610df485828601610d80565b9250506020610e0585828601610d80565b9150509250929050565b600080600060608486031215610e2457600080fd5b6000610e3286828701610d80565b9350506020610e4386828701610d80565b9250506040610e5486828701610d95565b9150509250925092565b60008060408385031215610e7157600080fd5b6000610e7f85828601610d80565b9250506020610e9085828601610d95565b9150509250929050565b600060208284031215610eac57600080fd5b6000610eba84828501610d95565b91505092915050565b610ecc8161120d565b82525050565b610edb8161121f565b82525050565b6000610eec8261119b565b610ef681856111a6565b9350610f06818560208601611262565b610f0f81611325565b840191505092915050565b6000610f276023836111a6565b9150610f3282611336565b604082019050919050565b6000610f4a6022836111a6565b9150610f5582611385565b604082019050919050565b6000610f6d6026836111a6565b9150610f78826113d4565b604082019050919050565b6000610f906028836111a6565b9150610f9b82611423565b604082019050919050565b6000610fb36025836111a6565b9150610fbe82611472565b604082019050919050565b6000610fd66024836111a6565b9150610fe1826114c1565b604082019050919050565b6000610ff96025836111a6565b915061100482611510565b604082019050919050565b6110188161124b565b82525050565b61102781611255565b82525050565b60006020820190506110426000830184610ec3565b92915050565b600060208201905061105d6000830184610ed2565b92915050565b6000602082019050818103600083015261107d8184610ee1565b905092915050565b6000602082019050818103600083015261109e81610f1a565b9050919050565b600060208201905081810360008301526110be81610f3d565b9050919050565b600060208201905081810360008301526110de81610f60565b9050919050565b600060208201905081810360008301526110fe81610f83565b9050919050565b6000602082019050818103600083015261111e81610fa6565b9050919050565b6000602082019050818103600083015261113e81610fc9565b9050919050565b6000602082019050818103600083015261115e81610fec565b9050919050565b600060208201905061117a600083018461100f565b92915050565b6000602082019050611195600083018461101e565b92915050565b600081519050919050565b600082825260208201905092915050565b60006111c28261124b565b91506111cd8361124b565b9250827fffffffffffffffffffffffffffffffffffffffffffffffffffffffffffffffff03821115611202576112016112c7565b5b828201905092915050565b60006112188261122b565b9050919050565b60008115159050919050565b600073ffffffffffffffffffffffffffffffffffffffff82169050919050565b6000819050919050565b600060ff82169050919050565b60005b83811015611280578082015181840152602081019050611265565b8381111561128f576000848401525b50505050565b600060028204905060018216806112ad57607f821691505b602082108114156112c1576112c06112f6565b5b50919050565b7f4e487b7100000000000000000000000000000000000000000000000000000000600052601160045260246000fd5b7f4e487b7100000000000000000000000000000000000000000000000000000000600052602260045260246000fd5b6000601f19601f8301169050919050565b7f45524332303a207472616e7366657220746f20746865207a65726f206164647260008201527f6573730000000000000000000000000000000000000000000000000000000000602082015250565b7f45524332303a20617070726f766520746f20746865207a65726f20616464726560008201527f7373000000000000000000000000000000000000000000000000000000000000602082015250565b7f45524332303a207472616e7366657220616d6f756e742065786365656473206260008201527f616c616e63650000000000000000000000000000000000000000000000000000602082015250565b7f45524332303a207472616e7366657220616d6f756e742065786365656473206160008201527f6c6c6f77616e6365000000000000000000000000000000000000000000000000602082015250565b7f45524332303a207472616e736665722066726f6d20746865207a65726f20616460008201527f6472657373000000000000000000000000000000000000000000000000000000602082015250565b7f45524332303a20617070726f76652066726f6d20746865207a65726f2061646460008201527f7265737300000000000000000000000000000000000000000000000000000000602082015250565b7f45524332303a2064656372656173656420616c6c6f77616e63652062656c6f7760008201527f207a65726f000000000000000000000000000000000000000000000000000000602082015250565b6115688161120d565b811461157357600080fd5b50565b61157f8161124b565b811461158a57600080fd5b5056fea26469706673582212203aadda68f297b01d36ae346b7c029f1dd50456c83b1abab430fa38fb41068dda64736f6c63430008040033",
  "linkReferences": {},
  "deployedLinkReferences": {}
}